:1000000019C028C027C026C025C024C023C022C0D4
:10001000CFC220C01FC01EC01DC01CC01BC01AC044
:1000200019C018C017C0CDC4DFC414C013C012C09B
:1000300011C010C011241FBECFEFCDBFDFE3DEBF64
:100040002EE3A0E0BEE301C01D92A735B207E1F7A1
:1000500006D0E3C6D5CFFC0164BF40830895CF939B
:10006000DF93CDB7DEB7CFD28091223E882321F037
:100070001092223E03D0A895A895F6CF0F93CF9368
:10008000DF93CDB7DEB72E97CDBFDEBF8091563E52
:10009000823058F180910E3E882359F087E494E035
:1000A00028E0FC01208380910E3E815080930E3E1B
:1000B00005C086E494E028E0FC01208380911C3E8A
:1000C000882359F087E494E024E0FC0120838091A8
:1000D0001C3E815080931C3E05C085E494E024E0E2
:1000E000FC0120831092563E05C08091563E8F5FE2
:1000F0008093563E22D18A8788E494E0FC01808177
:10010000882F90E082709927892B61F480911B3EA3
:100110008A3F28F480911B3E8F5F80931B3E109294
:10012000233E0BC08091233E8A3F28F48091233EDA
:100130008F5F8093233E10921B3E88E087D18B8790
:100140009C878B859C859C0140E050E084E690E094
:10015000DC014DD6DC01CB01072E7AE0B695A795E0
:10016000979587957A95D1F7702D8B879C8789E035
:100170006DD18D879E8780911B3E8233A1F58A8544
:10018000843018F08A85893730F082E080930E3E03
:1001900010921C3EB0C08A8580930F3E198216C013
:1001A00001E02FE03EE341E0698180E08BD5909152
:1001B000173E81E08927882331F086E080931C3E3A
:1001C00010920E3E06C089818F5F898389818823C2
:1001D0003CF78981893708F48EC086E080930E3E13
:1001E00010921C3E88C02B853C8580910B3E9091DF
:1001F0000C3E2817390709F458C08B859C859C0153
:1002000040E050E080E590E0DC01F1D5DC01CB017D
:1002100024E630E040E050E0BC01CD01C6D5DA0173
:10022000C9018C5E8A8384EC99E08B839C832B8547
:100230003C8541EF4203C001439F900D112484523D
:100240009A4F8D839E838B859C85982F84E6891B8E
:100250008F838A8180930F3E8B819C81892F992780
:100260008093103E8B818093113E8D819E81892FDA
:1002700099278093123E8D818093133E8F818093C6
:10028000143E8A8506E02FE03EE346E0682F80E0DA
:1002900019D58091173E882321F082E080930E3E8D
:1002A0002AC082E080931C3E26C02D853E85809129
:1002B000253E9091263E28173907E9F08D859E85C9
:1002C000892F992780930F3E8D859E858093103EC0
:1002D0008A8502E02FE03EE34DE0682F80E0F2D413
:1002E0008091173E882321F082E080930E3E03C068
:1002F00082E080931C3E8B859C8580930B3E90937F
:100300000C3E8D859E858093253E9093263E8D855F
:100310009E8588519C4F888799878885998516D1B5
:100320008091003E8F5F8093003E00002E96CDBFEF
:10033000DEBFDF91CF910F910895CF93DF9300D06F
:1003400000D0CDB7DEB788E094E0FC0180818095D5
:100350008A831B828A81869586958695882F90E070
:1003600081709927982F8B81892B8B838A81869521
:10037000882F90E082709927982F8B81892B8B830F
:100380008A81882F90E0880F991F84709927982F71
:100390008B81892B8B838A8182958F70882F90E047
:1003A00088709927982F8B81892B8B838A818695DA
:1003B0008695882F90E080719927982F8B81892BC3
:1003C0008B838A81882F90E080729927982F8B8168
:1003D000892B8B838A81882F90E0880F991F880F43
:1003E000991F80749927982F8B81892B8B831C826E
:1003F000198222C08B81882F90E02981222F30E042
:1004000002C0959587952A95E2F7817099272981F1
:10041000222F30E046E050E0BA01621B730B9B01D3
:1004200002C0880F991F2A95E2F7982F8C81892B9B
:100430008C8389818F5F898389818730D8F28C8111
:100440002496CDBFDEBFDF91CF910895CF93DF9388
:10045000CDB7DEB72997CDBFDEBF898789858C30C0
:1004600018F080E090E06CC080EA90E0FC018081B0
:100470008B8380E096E0FC0180818C8380E096E0B5
:10048000FC0182818D8380E096E0FC0186818E8371
:1004900080E096E021E8FC01208380E096E0298559
:1004A000FC0126831F82188605C08F8198850196DE
:1004B0008F8398878F819885883E9340B0F380E042
:1004C00096E021E0FC0120871F82188605C08F81FD
:1004D000988501968F8398878F819885883E934071
:1004E000B0F380E096E0FC018089918989839A834A
:1004F00080EA90E02B81FC01208380E096E02C8153
:10050000FC01208380E096E02D81FC01228380E0C5
:1005100096E02E81FC01268380E096E021E0FC013C
:1005200020871F82188605C08F81988501968F834A
:1005300098878F819885883E9340B0F389819A810E
:100540002996CDBFDEBFDF91CF910895CF93DF9382
:10055000CDB7DEB72697CDBFDEBF8D839E83F894DF
:1005600085E494E021E0FC0120838D819E819695B5
:1005700087958B839C8319821A8206C0000089812B
:100580009A81019689839A8329813A818B819C8102
:100590002817390798F386E494E021E0FC012083D2
:1005A000789400002696CDBFDEBFDF91CF910895ED
:1005B0001F920F9200903F000F9211242F933F93B0
:1005C0008F939F93EF93FF93CF93DF93CDB7DEB7D6
:1005D00081E08093223E80E09AE020E03AE0F90159
:1005E00023852160FC0123870000DF91CF91FF91DB
:1005F000EF919F918F913F912F910F9000923F002B
:100600000F901F9018950F931F93CF93DF9300D0F7
:1006100000D0CDB7DEB7F89419821A821B821C82F3
:1006200014C089819A81AB81BC8189839A83AB8311
:10063000BC83A89589819A81AB81BC810196A11D5B
:10064000B11D89839A83AB83BC8389819A81AB81F5
:10065000BC8180339547A105B10518F340E068EDF2
:1006600080E690E0F8DC41E068ED81E690E0F3DCC4
:1006700081E094E021E0FC01208381E194E028E026
:10068000FC01208382E194E028E0FC01208383E1E7
:1006900094E028E0FC01208384E194E028E0FC0160
:1006A000208385E194E028E0FC01208386E194E04A
:1006B00028E0FC01208387E194E028E0FC0120830E
:1006C00086E294E024E0FC01208382E294E021E0D1
:1006D000FC01208382E294E022E0FC01208382E29C
:1006E00094E020E1FC01208384E394E028E0FC0115
:1006F000208382E294E020E2FC01208385E394E001
:1007000028E0FC01208385E294E020E2FC012083C4
:1007100081E494E021E0FC01208386E494E021E080
:10072000FC01208382E494E022E0FC01208381E547
:1007300094E028E0FC01208381E494E024E0FC01C3
:10074000208385E494E024E0FC01208381E494E0AC
:1007500028E0FC01208386E494E028E0FC0120836B
:1007600080E09AE0FC01108280E09AE0FC011382B4
:1007700080E09AE021E0FC01248380E09AE020E020
:100780003AE0F90120812C60FC01208380E09AE0AE
:100790002CE033E0FC0126A337A380E09AE0FC01C3
:1007A000118280E09AE021E0FC01228780E09AE05B
:1007B00020E03AE0F90120812160FC01208380E003
:1007C00096E022E0FC01208380E096E0FC011182AB
:1007D00080E096E022E5FC01228380E096E0FC01C7
:1007E000138280E096E0FC01148280E096E029E02C
:1007F000FC01268380E096E020E036E0F9012081CC
:100800002160FC01208380E096E020E036E0F901E1
:1008100020852160FC01208700EA16E821E030E015
:1008200040E061E080E014D08DE29EE380931F3EC3
:100830009093203E1092223E1092003E7894000049
:100840002496CDBFDEBFDF91CF911F910F91089508
:100850000F931F93CF93DF93CDB7DEB72997CDBF0B
:10086000DEBF8B836C834D830E831F83288739877C
:100870008C81882309F490C080E198E0FC0110820B
:1008800080E198E021E0FC01228380E198E0FC0116
:10089000118680E198E020ECFC01238380E198E060
:1008A00020E138E0F90124812460FC0124838E8159
:1008B0009F81A885B98581389A41A640B10548F045
:1008C00080E198E020E138E0F90120812260FC011C
:1008D00020838E819F81A885B985892B8A2B8B2BBC
:1008E00011F480E066C08E819F81A885B9858093D0
:1008F000273E9093283EA093293EB0932A3E80E85D
:1009000096E9A8E9B0E02E813F8148855985BC0170
:10091000CD014BD2DA01C9014497A109B109B695BD
:10092000A79597958795B695A79597958795898368
:100930009A8389819A81039720F483E090E08983E8
:100940009A8389819A818F3F910529F020F08FEF5A
:1009500090E089839A8380E198E02981FC012683D5
:1009600080E198E020E138E0F90125812C7F2160C9
:10097000FC01258380E198E020E138E0F901248141
:100980002860FC01248380E198E020E138E0F9014F
:1009900023812160FC0123838D818093243E10926A
:1009A000093E81E08093083E10921D3E10921E3E4B
:1009B00081E02996CDBFDEBFDF91CF911F910F91CE
:1009C00008951F920F9200903F000F921124CF9331
:1009D000DF93CDB7DEB70000DF91CF910F9000928B
:1009E0003F000F901F9018951F920F9200903F00AC
:1009F0000F9211242F933F934F935F938F939F9365
:100A0000EF93FF93CF93DF93CDB7DEB780E198E00C
:100A1000FC018381882F90E081709927892B09F44C
:100A20003CC18091093E882309F439C180E198E0F6
:100A3000FC018581882F90E084709927892BC1F073
:100A400080E198E020E138E0F90125812460FC0193
:100A5000258380E198E020E138E0F90124812360DA
:100A6000FC0124831092093E81E08093173E1AC155
:100A700080E198E0FC018581882F90E088709927BB
:100A8000892BC1F080E198E020E138E0F90125816F
:100A90002860FC01258380E198E020E138E0F9013D
:100AA00024812360FC0124831092093E81E080931D
:100AB000173EF8C080E198E0FC018581882F90E026
:100AC00080719927892B59F080E198E023E0FC019F
:100AD00024831092093E81E08093173EE3C0809109
:100AE000093E833009F054C080E198E0FC01858123
:100AF000882F90E080749927892B09F4D3C080E176
:100B000098E0FC018581882F90E080719927892BDE
:100B100009F0C8C080911A3E882351F480E198E022
:100B20002091053EFC01208781E080931A3EBAC0E7
:100B300080911A3E813009F0B5C09091063E8091B7
:100B40000A3E9817B0F480E198E04091183E509129
:100B5000193E2091063E222F30E0240F351FF90167
:100B60002081FC0120878091063E8F5F8093063EA6
:100B700099C080E198E020E138E0F9012481236008
:100B8000FC01248381E080930D3E1092093E8AC0CF
:100B90008091093E823009F085C080E198E0FC0137
:100BA0008581882F90E080749927892B61F180E1FD
:100BB00098E0FC018581882F90E080719927892B2E
:100BC00011F580911A3E882351F480E198E020913C
:100BD000053EFC01208781E080931A3E63C080912E
:100BE0001A3E813009F05DC080E198E02091243EFA
:100BF000222F30E0220F331F2160FC01278382E087
:100C000080931A3E4FC080E198E0FC0185818823E3
:100C10000CF048C080911A3E823009F043C08091A8
:100C2000063E8F5F8093063E9091063E80910A3E7D
:100C30009817B8F420911F3E3091203E8091063ED7
:100C4000882F90E00197820F931F20E138E0F9018F
:100C50002085FC01208380E198E022E0FC012483D0
:100C600021C020911F3E3091203E8091063E882F6A
:100C700090E00197820F931F20E138E0F901208571
:100C8000FC01208380E198E027E0FC01248381E0DF
:100C900080930D3E1092093E05C0000003C0000085
:100CA00001C00000DF91CF91FF91EF919F918F9153
:100CB0005F914F913F912F910F9000923F000F90C5
:100CC0001F9018950F93CF93DF93CDB7DEB72A9778
:100CD000CDBFDEBF8D836E834F83288739870A8718
:100CE00080E198E0FC018381882F90E08170992752
:100CF000892B11F480E052C088859985892B11F4E5
:100D000080E04CC08A85882311F480E047C08E8142
:100D10008093243E8F818093053E888599858093BA
:100D2000183E9093193E8A8580930A3E1092063EA3
:100D300010921A3E10920D3E1092173E83E080935F
:100D4000093E80E198E02E81220FFC012783198261
:100D50001A821B821C8215C089819A81AB81BC8159
:100D60009C01AD012F5F3F4F4F4F5F4F29833A8367
:100D70004B835C83893E9340A105B10510F080E070
:100D80000DC090910D3E81E08927882331F090912C
:100D9000173E81E089278823F9F681E02A96CDBFA6
:100DA000DEBFDF91CF910F910895A1E21A2EAA1B09
:100DB000BB1BFD010DC0AA1FBB1FEE1FFF1FA2170B
:100DC000B307E407F50720F0A21BB30BE40BF50B08
:100DD000661F771F881F991F1A9469F76095709591
:100DE000809590959B01AC01BD01CF01089509D07C
:100DF000A59F900DB49F900DA49F800D911D11246F
:100E00000895A29FB001B39FC001A39F01D0B29FDC
:0E0E1000700D811D1124911D0895F894FFCFDF
:00000001FF
